8=FIX.4.4|9=178|35=8|34=1090|49=SELLSIDE|56=BUYSIDE|52=20260115-08:30:01.000|37=ORD-0001|17=EXEC-0001|11=ORDER-0001|55=AAPL|54=1|39=2|150=2|38=100|14=100|151=0|6=185.50|44=185.50|60=20260115-08:30:01.000|10=128|
